:100000000C9462000C948A000C948A000C948A0070
:100010000C948A000C948A000C948A000C948A0038
:100020000C948A000C948A000C948A000C948A0028
:100030000C948A000C948A000C948A000C948A0018
:100040000C9405040C948A000C9475040C944F04D1
:100050000C948A000C948A000C948A000C948A00F8
:100060000C948A000C948A000000000024002700F1
:100070002A0000000000250028002B0000000008D6
:10008000000201000003040700000000000000005F
:1000900000000000230026002900040404040404D6
:1000A0000404020202020202030303030303010227
:1000B00004081020408001020408102001020408F6
:1000C0001020A70411241FBECFEFD8E0DEBFCDBFA4
:1000D00011E0A0E0B1E0E8E6F2E102C005900D9287
:1000E000A833B107D9F721E0A8E3B1E001C01D9220
:1000F000A13FB207E1F710E0C2E6D0E004C02197CB
:10010000FE010E942C09C136D107C9F70E94F404F0
:100110000C9432090C940000CF92DF92EF92FF9280
:10012000CF93DF93B091E501A0E08111AB2F8091D7
:10013000E60190E0880F991FAC0140575F4FC090D7
:10014000EB01D090EC01E090ED01F090EE0130E099
:1001500020E0FA01C591D491E881B90190E080E0F6
:10016000EB23EA130AC02F5F3F4F6C157D058E0508
:100170009F0578F36FEF7FEFCB01DF91CF91FF9079
:10018000EF90DF90CF90089590E0FC01E458FF4F8E
:100190002491FC01E255FF4F3491FC01E656FF4FDC
:1001A000E491EE23C9F0222339F0233001F1A8F4C1
:1001B000213019F1223029F1F0E0EE0FFF1FEE5847
:1001C000FF4FA591B4918FB7F894EC91611126C0BF
:1001D00030953E233C938FBF08952730A9F02830F7
:1001E000C9F0243049F7809180008F7D03C0809151
:1001F00080008F7780938000DFCF84B58F7784BDB8
:10020000DBCF84B58F7DFBCF8091B0008F7780935B
:10021000B000D2CF8091B0008F7DF9CF3E2BDACFE6
:10022000CF93DF9390E0FC01E255FF4F2491865677
:100230009F4FFC0184918823D1F090E0880F991F93
:10024000FC01E859FF4FA591B491FC01EE58FF4F16
:10025000C591D491623071F49FB7F8943C91822F8C
:10026000809583238C93E8812E2B28839FBFDF9179
:10027000CF9108958FB7F894EC912E2B2C938FBFCC
:10028000F6CF3FB7F8948091390190913A01A0914F
:100290003B01B0913C0126B5A89B05C02F3F19F04A
:1002A0000196A11DB11D3FBFBA2FA92F982F8827F6
:1002B000BC01CD01620F711D811D911D42E0660FD1
:1002C000771F881F991F4A95D1F708958F929F92A3
:1002D000AF92BF92CF92DF92EF92FF924B015C01FF
:1002E0000E9441016B017C010E9441016C197D0952
:1002F0008E099F09683E734081059105A8F321E0AE
:10030000821A9108A108B10888EEC80E83E0D81EB1
:10031000E11CF11C81149104A104B10429F7FF90A0
:10032000EF90DF90CF90BF90AF909F908F90089507
:10033000CF92DF92EF92FF920F931F93CF93DF93B1
:10034000CDB7DEB7C054D1400FB6F894DEBF0FBEB4
:10035000CDBF2FB7F89480913D0190913E01A091BF
:100360003F01B09140012FBF4091E7015091E8015A
:100370006091E9017091EA018C019D01041B150B4C
:10038000260B370BB901A801403D574061057105A7
:1003900090F48091EF01C05CDE4F0FB6F894DEBFA1
:1003A0000FBECDBFDF91CF911F910F91FF90EF90C6
:1003B000DF90CF9008958093E7019093E801A09398
:1003C000E901B093EA011092E2011092E10110926A
:1003D000E0011092DF011092DE0162E08091E30102
:1003E0000E94100161E070E080E090E00E946601F0
:1003F00061E08091E3010E94100160E08091E301DF
:100400000E94C4008091E4018551823020F58BE286
:1004100091E10197F1F762E08091E3010E94100100
:100420008091F00190E08230910538F0880F991F9B
:10043000880F991F05970197F1F7F89480E00E94C3
:100440008C006F3F7F4F8F4F9F4F61F41092EF01F1
:10045000789480E0A0CF64E170E080E090E00E94BA
:100460006601D9CF81E00E948C006F3F7F4F8F4F94
:100470009F4F61F38E010F5F1F4F6E018FEBC81A04
:100480008EEFD80A780180E00E948C00F70160832B
:1004900071838283938381E00E948C00F7016483DF
:1004A000758386839783F8E0EF0EF11CEC14FD044E
:1004B00051F7789430E020E0F801C080D180E280EC
:1004C000F3804481558166817781FFEFCF16DF0687
:1004D000EF06FF0631F04F3F8FEF580768077807A8
:1004E00019F41092EF01B5CFF90183E0F595E79586
:1004F0008A95E1F7E252FE4F8081880FC416D50637
:10050000E606F70610F180832F5F3F4F085F1F4F0D
:100510002832310589F64091E2012091DE01809177
:10052000DF01280F3327331F8091E001280F311D91
:100530008091E101820F932F911D99274817190689
:1005400081F681E08093EF0126CF8160DCCFAF920E
:10055000BF92CF92DF92EF92FF920F931F93CF93B0
:10056000DF936C017B018B01040F151FEB015E0112
:10057000AE18BF08C017D10759F06991D601ED91A7
:10058000FC910190F081E02DC6010995892B79F746
:10059000C501DF91CF911F910F91FF90EF90DF90F8
:1005A000CF90BF90AF900895FC01538D448D252FBF
:1005B00030E0842F90E0821B930B541710F0CF96FD
:1005C000089501970895FC01918D828D981761F02F
:1005D000A28DAE0FBF2FB11D5D968C91928D9F5F46
:1005E0009F73928F90E008958FEF9FEF0895FC0125
:1005F000918D828D981731F0828DE80FF11D858DD8
:1006000090E008958FEF9FEF0895FC01918D228D6A
:10061000892F90E0805C9F4F821B91098F739927EF
:10062000089581E491E00E94050321E0892B09F4FB
:1006300020E0822F089580E090E0892B29F00E942D
:10064000110381110C9400000895FC01A48DA80FE2
:10065000B92FB11DA35ABF4F2C91848D90E0019604
:100660008F739927848FA689B7892C93A089B18924
:100670008C91837080648C93938D848D981306C0C5
:100680000288F389E02D80818F7D80830895EF9229
:10069000FF920F931F93CF93DF93EC0181E0888F3C
:1006A0009B8D8C8D98131AC0E889F989808185FF0C
:1006B00015C09FB7F894EE89FF896083E889F989AE
:1006C00080818370806480839FBF81E090E0DF91B0
:1006D000CF911F910F91FF90EF900895F62E0B8D03
:1006E00010E00F5F1F4F0F731127E02E8C8D8E11BE
:1006F0000CC00FB607FCFACFE889F989808185FF25
:10070000F5CFCE010E942503F1CFEB8DEC0FFD2F2D
:10071000F11DE35AFF4FF0829FB7F8940B8FEA89DF
:10072000FB8980818062CFCFCF93DF93EC01888DEE
:100730008823B9F0AA89BB89E889F9898C9185FD5C
:1007400003C0808186FD0DC00FB607FCF7CF8C91EA
:1007500085FFF2CF808185FFEDCFCE010E9425037A
:10076000E9CFDF91CF910895FC0101900020E9F7D6
:100770003197AF01481B590BBC0181E491E00C9407
:10078000A7028F929F92AF92BF920F931F93CF9326
:10079000DF93CDB7DEB7A1970FB6F894DEBF0FBEDB
:1007A000CDBF19A2423008F44AE08E010F5D1F4F01
:1007B000842E912CB12CA12CA50194010E940A0930
:1007C000E62FB901CA01EA30F4F4E05DD801EE93F6
:1007D0008D01232B242B252B79F790E080E01097B7
:1007E00019F0CD010E94B403A1960FB6F894DEBFB4
:1007F0000FBECDBFDF91CF911F910F91BF90AF90F2
:100800009F908F900895E95CE1CF1F920F920FB6F1
:100810000F9211242F933F938F939F93AF93BF9386
:1008200080913D0190913E01A0913F01B091400126
:100830003091380123E0230F2D3758F50196A11D83
:10084000B11D2093380180933D0190933E01A09308
:100850003F01B09340018091390190913A01A091FC
:100860003B01B0913C010196A11DB11D809339015E
:1008700090933A01A0933B01B0933C01BF91AF919B
:100880009F918F913F912F910F900FBE0F901F90CE
:10089000189526E8230F0296A11DB11DD2CF1F92F5
:1008A0000F920FB60F9211242F933F934F935F93A4
:1008B0006F937F938F939F93AF93BF93EF93FF9328
:1008C00081E491E00E942503FF91EF91BF91AF91E8
:1008D0009F918F917F916F915F914F913F912F9158
:1008E0000F900FBE0F901F9018951F920F920FB68A
:1008F0000F9211242F938F939F93EF93FF93E09187
:100900005101F09152018081E0915701F09158011D
:1009100082FD1BC0908180915A018F5F8F7320915F
:100920005B01821741F0E0915A01F0E0EF5BFE4F6E
:10093000958F80935A01FF91EF919F918F912F9105
:100940000F900FBE0F901F9018958081F4CFE1E4B7
:10095000F1E01382128288EE93E0A0E0B0E084839D
:100960009583A683B78384E091E09183808385ECAF
:1009700090E09587848784EC90E09787868780EC69
:1009800090E0918B808B81EC90E0938B828B82EC5A
:1009900090E0958B848B86EC90E0978B868B118E04
:1009A000128E138E148EAEEDB1E082E015968C930C
:1009B00015978BE016968C931697E0EBF0E0E49198
:1009C0001796EC931797ECE9F0E0E4911896EC9306
:1009D000189740E85EE360E070E01D964D935D93EC
:1009E0006D937C9350970895CF93DF9300D000D000
:1009F000CDB7DEB7789484B5826084BD84B581605C
:100A000084BD85B5826085BD85B5816085BD8091D9
:100A10006E00816080936E00109281008091810051
:100A20008260809381008091810081608093810049
:100A3000809180008160809380008091B10084600B
:100A40008093B1008091B00081608093B00080916C
:100A50007A00846080937A0080917A00826080932B
:100A60007A0080917A00816080937A0080917A0088
:100A7000806880937A001092C10061E086E00E9455
:100A8000100161E087E00E941001E0915101F091B6
:100A9000520182E08083E0914D01F0914E0110827D
:100AA000E0914F01F09150018FEC80831092590139
:100AB000E0915501F091560186E08083E091530169
:100AC000F0915401808180618083E0915301F09125
:100AD0005401808188608083E0915301F09154013A
:100AE000808180688083E0915301F091540180817E
:100AF0008F7D808362E08091E3010E9410012FB717
:100B0000F89480913D0190913E01A0913F01B091F8
:100B100040012FBF805D9740A109B1098093E70193
:100B20009093E801A093E901B093EA0187E38093F1
:100B3000F00110E40E949801882351F08091E401B3
:100B40008B3030F08D3058F08551823008F48FC0F2
:100B5000412C512C90EC692E9FE7792E1EC060919C
:100B6000DF0170E090E080E00E94E3072DEC3CECB8
:100B70004CEC5DE30E9498086B017C016091DE0102
:100B800070E090E080E00E94E3079B01AC01C701A8
:100B9000B6010E9441072B013C0110937C0080911B
:100BA0007A00806480937A0080917A0086FDFCCF81
:100BB0006091780070917900072E000C880B990BDA
:100BC0000E94E30729E034E240E15CE30E949808D8
:100BD0006B017C014B015C0182E191E00E94B40356
:100BE000A7019601C701B6010E940509882309F4EF
:100BF00050C086E291E00E94B40382E391E00E943B
:100C0000B40385E391E00E94B40320E030E04AEAB7
:100C100052E4C301B2010E94930818160CF0D2C02E
:100C200061E087E00E94C4006AEF70E080E090E03D
:100C30000E94660160E087E00E94C4006AEF70E0F5
:100C400080E090E00E94660160ED77E080E090E057
:100C50000E946601A0E0B0E0AB2B09F46BCF0E94CC
:100C60001103882309F466CF0E94000063CF6091CE
:100C7000DE017091DF0176276727762790E080E01C
:100C80000E94E1072DEC3CEC4CEC5DE30E949808DF
:100C900082CFD701C601BF7789839A83AB83BC8398
:100CA0002FEF3FEF4FE75FE7BC01CD010E94050941
:100CB00081110FC02FEF3FEF4FE75FE769817A8126
:100CC0008B819C810E94AD0718161CF48AE291E08A
:100CD00092CF2FEF3FEF4FE75FE4C701B6010E94CD
:100CE000930818161CF48EE291E085CF2FEF3FEFAA
:100CF0004FE75FECC701B6010E94AD0787FDF3CF58
:100D000020E030E0A901C701B6010E94AD0787FFCE
:100D10000BC06DE281E491E00E9447034601570158
:100D2000B7FAB094B7F8B0942AE037ED43EA5BE342
:100D3000C501B4010E9441074B015C010E94B2074A
:100D40006B017C010E94E1079B01AC01C501B4016C
:100D50000E9440074B015C014AE0C701B6010E94B6
:100D6000C1036EE281E491E00E94470320E030E09D
:100D700040E251E4C501B4010E9498084B015C01B6
:100D80000E94B2076B01F12CE12C4AE0C701B601C9
:100D90000E94C103C701B6010E94E1079B01AC019B
:100DA000C501B4010E94400720E030E040E251E478
:100DB0000E9498080E94B20790E080E04AE00E94FA
:100DC000C1031BCF20E030E040EA52E4C301B2018E
:100DD0000E94930818163CF461E086E00E94C4006B
:100DE00061E087E01AC020E030E04CE552E4C30146
:100DF000B2010E94930818169CF461E086E00E94FC
:100E0000C40061E087E00E94C40068E873E180E00C
:100E100090E00E94660160E086E00E94C40014CF6A
:100E200020E030E048EC51E4C301B2010E94AD077C
:100E300087FF20C083E0E82EF12C61E086E00E946D
:100E4000C40064EF71E080E090E00E94660160E021
:100E500086E00E94C40064EF71E080E090E00E94B0
:100E6000660191E0E91AF10841F760EA7FE080E06D
:100E700090E0E8CE60E086E00E94C40060E0B1CF80
:100E80005058BB27AA270E9458070C9459080E9463
:100E90004B0838F00E94520820F039F49F3F19F4B3
:100EA00026F40C9448080EF4E095E7FB0C944208F5
:100EB000E92F0E946A0858F3BA176207730784077C
:100EC000950720F079F4A6F50C948C080EF4E095C3
:100ED0000B2EBA2FA02D0B01B90190010C01CA01F4
:100EE000A0011124FF27591B99F0593F50F4503E9F
:100EF00068F11A16F040A22F232F342F4427585F91
:100F0000F3CF469537952795A795F0405395C9F7A8
:100F10007EF41F16BA0B620B730B840BBAF0915060
:100F2000A1F0FF0FBB1F661F771F881FC2F70EC0FF
:100F3000BA0F621F731F841F48F4879577956795D2
:100F4000B795F7959E3F08F0B0CF9395880F08F0BE
:100F50009927EE0F9795879508950E941E0808F42B
:100F600081E008950E94720888F09F5798F0B92F89
:100F70009927B751B0F0E1F0660F771F881F991FCE
:100F80001AF0BA95C9F714C0B13091F00E948C08DC
:100F9000B1E008950C948C08672F782F8827B85FEC
:100FA00039F0B93FCCF3869577956795B395D9F726
:100FB0003EF490958095709561957F4F8F4F9F4F30
:100FC0000895E89409C097FB3EF49095809570953C
:100FD00061957F4F8F4F9F4F9923A9F0F92F96E985
:100FE000BB279395F695879577956795B795F111FA
:100FF000F8CFFAF4BB0F11F460FF1BC06F5F7F4F97
:101000008F4F9F4F16C0882311F096E911C07723A8
:1010100021F09EE8872F762F05C0662371F096E8B1
:10102000862F70E060E02AF09A95660F771F881F80
:10103000DAF7880F9695879597F90895990F000824
:10104000550FAA0BE0E8FEEF16161706E807F9079A
:10105000C0F012161306E407F50798F0621B730B35
:10106000840B950B39F40A2661F0232B242B252BB6
:1010700021F408950A2609F4A140A6958FEF811D59
:10108000811D089597F99F6780E870E060E00895FA
:101090009FEF80EC089500240A9416161706180690
:1010A0000906089500240A9412161306140605066C
:1010B0000895092E0394000C11F4882352F0BB0FFD
:1010C00040F4BF2B11F460FF04C06F5F7F4F8F4F60
:1010D0009F4F089557FD9058440F551F59F05F3F9B
:1010E00071F04795880F97FB991F61F09F3F79F04A
:1010F00087950895121613061406551FF2CF4695CC
:10110000F1DF08C0161617061806991FF1CF86954D
:101110007105610508940895E894BB276627772731
:10112000CB0197F908950E941E0808F48FEF0895E7
:101130000E94AB080C9459080E944B0838F00E949A
:10114000520820F0952311F00C9442080C944808A2
:1011500011240C948D080E946A0870F3959FC1F3C6
:10116000950F50E0551F629FF001729FBB27F00D55
:10117000B11D639FAA27F00DB11DAA1F649F6627AA
:10118000B00DA11D661F829F2227B00DA11D621FF9
:10119000739FB00DA11D621F839FA00D611D221FB3
:1011A000749F3327A00D611D231F849F600D211D97
:1011B000822F762F6A2F11249F5750409AF0F1F01A
:1011C00088234AF0EE0FFF1FBB1F661F771F881F83
:1011D00091505040A9F79E3F510580F00C94420871
:1011E0000C948D085F3FE4F3983ED4F38695779591
:1011F0006795B795F795E7959F5FC1F7FE2B880F29
:10120000911D9695879597F908950E941E08880B61
:10121000990B0895A1E21A2EAA1BBB1BFD010DC05C
:10122000AA1FBB1FEE1FFF1FA217B307E407F50796
:1012300020F0A21BB30BE40BF50B661F771F881F72
:10124000991F1A9469F760957095809590959B0108
:10125000AC01BD01CF010895EE0FFF1F0590F49181
:08126000E02D0994F894FFCF82
:10126800000000004703A702D40294030503E30229
:10127800F7024E6976656C20646520626174657258
:10128800C3AD613A20006E616E00696E66006F76CC
:0812980066002056000D0A005B
:00000001FF
